{
  "_format": "hh-sol-artifact-1",
  "contractName": "MultisenderUpgradable",
  "sourceName": "contracts/MultiSenderUpgradable.sol",
  "abi": [
    {
      "anonymous": false,
      "inputs": [
        {
          "indexed": false,
          "internalType": "address",
          "name": "previousAdmin",
          "type": "address"
        },
        {
          "indexed": false,
          "internalType": "address",
          "name": "newAdmin",
          "type": "address"
        }
      ],
      "name": "AdminChanged",
      "type": "event"
    },
    {
      "anonymous": false,
      "inputs": [
        {
          "indexed": true,
          "internalType": "address",
          "name": "beacon",
          "type": "address"
        }
      ],
      "name": "BeaconUpgraded",
      "type": "event"
    },
    {
      "anonymous": false,
      "inputs": [
        {
          "indexed": false,
          "internalType": "uint8",
          "name": "version",
          "type": "uint8"
        }
      ],
      "name": "Initialized",
      "type": "event"
    },
    {
      "anonymous": false,
      "inputs": [
        {
          "indexed": true,
          "internalType": "address",
          "name": "previousOwner",
          "type": "address"
        },
        {
          "indexed": true,
          "internalType": "address",
          "name": "newOwner",
          "type": "address"
        }
      ],
      "name": "OwnershipTransferred",
      "type": "event"
    },
    {
      "anonymous": false,
      "inputs": [
        {
          "indexed": true,
          "internalType": "address",
          "name": "implementation",
          "type": "address"
        }
      ],
      "name": "Upgraded",
      "type": "event"
    },
    {
      "inputs": [],
      "name": "BNBBalance",
      "outputs": [
        {
          "internalType": "uint256",
          "name": "balance",
          "type": "uint256"
        }
      ],
      "stateMutability": "view",
      "type": "function"
    },
    {
      "inputs": [
        {
          "internalType": "address payable[]",
          "name": "_address",
          "type": "address[]"
        },
        {
          "internalType": "uint256[]",
          "name": "_value",
          "type": "uint256[]"
        }
      ],
      "name": "SendBNBByValue",
      "outputs": [
        {
          "internalType": "bool",
          "name": "",
          "type": "bool"
        }
      ],
      "stateMutability": "payable",
      "type": "function"
    },
    {
      "inputs": [
        {
          "internalType": "address payable[]",
          "name": "_address",
          "type": "address[]"
        }
      ],
      "name": "SendBNBEqually",
      "outputs": [
        {
          "internalType": "bool",
          "name": "",
          "type": "bool"
        }
      ],
      "stateMutability": "payable",
      "type": "function"
    },
    {
      "inputs": [
        {
          "internalType": "address payable[]",
          "name": "_address",
          "type": "address[]"
        },
        {
          "internalType": "uint256",
          "name": "_value",
          "type": "uint256"
        }
      ],
      "name": "SendBNBEquallyByValue",
      "outputs": [
        {
          "internalType": "bool",
          "name": "",
          "type": "bool"
        }
      ],
      "stateMutability": "payable",
      "type": "function"
    },
    {
      "inputs": [
        {
          "internalType": "address",
          "name": "_tokenAddress",
          "type": "address"
        },
        {
          "internalType": "address[]",
          "name": "_address",
          "type": "address[]"
        },
        {
          "internalType": "uint256[]",
          "name": "_value",
          "type": "uint256[]"
        }
      ],
      "name": "SendTokensByValue",
      "outputs": [
        {
          "internalType": "bool",
          "name": "",
          "type": "bool"
        }
      ],
      "stateMutability": "nonpayable",
      "type": "function"
    },
    {
      "inputs": [
        {
          "internalType": "address",
          "name": "_tokenAddress",
          "type": "address"
        },
        {
          "internalType": "address[]",
          "name": "_address",
          "type": "address[]"
        },
        {
          "internalType": "uint256",
          "name": "_value",
          "type": "uint256"
        }
      ],
      "name": "SendTokensEqually",
      "outputs": [
        {
          "internalType": "bool",
          "name": "",
          "type": "bool"
        }
      ],
      "stateMutability": "nonpayable",
      "type": "function"
    },
    {
      "inputs": [
        {
          "internalType": "address",
          "name": "_tokenAddress",
          "type": "address"
        },
        {
          "internalType": "address[]",
          "name": "_address",
          "type": "address[]"
        },
        {
          "internalType": "uint256",
          "name": "_value",
          "type": "uint256"
        }
      ],
      "name": "SendTokensEquallyByValue",
      "outputs": [
        {
          "internalType": "bool",
          "name": "",
          "type": "bool"
        }
      ],
      "stateMutability": "nonpayable",
      "type": "function"
    },
    {
      "inputs": [
        {
          "internalType": "address",
          "name": "_tokenAddress",
          "type": "address"
        }
      ],
      "name": "TokensBalance",
      "outputs": [
        {
          "internalType": "uint256",
          "name": "balance",
          "type": "uint256"
        }
      ],
      "stateMutability": "view",
      "type": "function"
    },
    {
      "inputs": [],
      "name": "initialize",
      "outputs": [],
      "stateMutability": "nonpayable",
      "type": "function"
    },
    {
      "inputs": [],
      "name": "owner",
      "outputs": [
        {
          "internalType": "address",
          "name": "",
          "type": "address"
        }
      ],
      "stateMutability": "view",
      "type": "function"
    },
    {
      "inputs": [],
      "name": "proxiableUUID",
      "outputs": [
        {
          "internalType": "bytes32",
          "name": "",
          "type": "bytes32"
        }
      ],
      "stateMutability": "view",
      "type": "function"
    },
    {
      "inputs": [],
      "name": "renounceOwnership",
      "outputs": [],
      "stateMutability": "nonpayable",
      "type": "function"
    },
    {
      "inputs": [
        {
          "internalType": "address",
          "name": "newOwner",
          "type": "address"
        }
      ],
      "name": "transferOwnership",
      "outputs": [],
      "stateMutability": "nonpayable",
      "type": "function"
    },
    {
      "inputs": [
        {
          "internalType": "address",
          "name": "newImplementation",
          "type": "address"
        }
      ],
      "name": "upgradeTo",
      "outputs": [],
      "stateMutability": "nonpayable",
      "type": "function"
    },
    {
      "inputs": [
        {
          "internalType": "address",
          "name": "newImplementation",
          "type": "address"
        },
        {
          "internalType": "bytes",
          "name": "data",
          "type": "bytes"
        }
      ],
      "name": "upgradeToAndCall",
      "outputs": [],
      "stateMutability": "payable",
      "type": "function"
    },
    {
      "inputs": [
        {
          "internalType": "address",
          "name": "_address",
          "type": "address"
        },
        {
          "internalType": "uint256",
          "name": "_value",
          "type": "uint256"
        }
      ],
      "name": "withdraw",
      "outputs": [],
      "stateMutability": "nonpayable",
      "type": "function"
    },
    {
      "inputs": [
        {
          "internalType": "address",
          "name": "_tokenAddress",
          "type": "address"
        },
        {
          "internalType": "uint256",
          "name": "_value",
          "type": "uint256"
        }
      ],
      "name": "withdrawTokens",
      "outputs": [],
      "stateMutability": "nonpayable",
      "type": "function"
    },
    {
      "stateMutability": "payable",
      "type": "receive"
    }
  ],
  "bytecode": "0x60a06040523060805234801561001457600080fd5b5060805161185e61004c60003960008181610591015281816105da01528181610679015281816106b90152610819015261185e6000f3fe6080604052600436106101015760003560e01c806364179f10116100955780638da5cb5b116100645780638da5cb5b1461025d57806391eb949114610285578063a63a851414610298578063f2fde38b146102b8578063f3fef3a3146102d857600080fd5b806364179f1014610200578063715018a61461022057806376e2b7ab146102355780638129fc1c1461024857600080fd5b80633659cfe6116100d15780633659cfe6146101a55780634f1ef286146101c557806350af0d52146101d857806352d1902d146101eb57600080fd5b8062036b2f1461010d57806306b091f914610140578063070b95ba1461016257806326014eb91461019257600080fd5b3661010857005b600080fd5b34801561011957600080fd5b5061012d610128366004611258565b6102f8565b6040519081526020015b60405180910390f35b34801561014c57600080fd5b5061016061015b366004611275565b610369565b005b34801561016e57600080fd5b5061018261017d3660046112ed565b6103f7565b6040519015158152602001610137565b6101826101a0366004611349565b6104f0565b3480156101b157600080fd5b506101606101c0366004611258565b610587565b6101606101d33660046113ab565b61066f565b6101826101e636600461146f565b61073f565b3480156101f757600080fd5b5061012d61080c565b34801561020c57600080fd5b5061018261021b3660046114db565b6108bf565b34801561022c57600080fd5b506101606109ef565b34801561024157600080fd5b504761012d565b34801561025457600080fd5b50610160610a03565b34801561026957600080fd5b506033546040516001600160a01b039091168152602001610137565b61018261029336600461155e565b610b1b565b3480156102a457600080fd5b506101826102b33660046112ed565b610bc2565b3480156102c457600080fd5b506101606102d3366004611258565b610caa565b3480156102e457600080fd5b506101606102f3366004611275565b610d20565b6040516370a0823160e01b81523060048201526000906001600160a01b038316906370a0823190602401602060405180830381865afa15801561033f573d6000803e3d6000fd5b505050506040513d601f19601f8201168201806040525081019061036391906115a0565b50919050565b610371610d5e565b6001600160a01b03821663a9059cbb336040516001600160e01b031960e084901b1681526001600160a01b039091166004820152602481018490526044016020604051808303816000875af11580156103ce573d6000803e3d6000fd5b505050506040513d601f19601f820116820180604052508101906103f291906115b9565b505050565b600082816104098461ffff8416610db8565b905060005b8261ffff168161ffff1610156104e257876001600160a01b03166323b872dd3389898561ffff16818110610444576104446115db565b90506020020160208101906104599190611258565b6040516001600160e01b031960e085901b1681526001600160a01b03928316600482015291166024820152604481018590526064016020604051808303816000875af11580156104ad573d6000803e3d6000fd5b505050506040513d601f19601f820116820180604052508101906104d191906115b9565b506104db816115f1565b905061040e565b506001979650505050505050565b600082815b8161ffff168161ffff1610156105795785858261ffff1681811061051b5761051b6115db565b90506020020160208101906105309190611258565b6001600160a01b03166108fc859081150290604051600060405180830381858888f19350505050158015610568573d6000803e3d6000fd5b50610572816115f1565b90506104f5565b5060019150505b9392505050565b6001600160a01b037f00000000000000000000000000000000000000000000000000000000000000001630036105d85760405162461bcd60e51b81526004016105cf90611620565b60405180910390fd5b7f00000000000000000000000000000000000000000000000000000000000000006001600160a01b03166106216000805160206117e2833981519152546001600160a01b031690565b6001600160a01b0316146106475760405162461bcd60e51b81526004016105cf9061166c565b61065081610dc4565b6040805160008082526020820190925261066c91839190610dcc565b50565b6001600160a01b037f00000000000000000000000000000000000000000000000000000000000000001630036106b75760405162461bcd60e51b81526004016105cf90611620565b7f00000000000000000000000000000000000000000000000000000000000000006001600160a01b03166107006000805160206117e2833981519152546001600160a01b031690565b6001600160a01b0316146107265760405162461bcd60e51b81526004016105cf9061166c565b61072f82610dc4565b61073b82826001610dcc565b5050565b6000838261ffff808316908216146107695760405162461bcd60e51b81526004016105cf906116b8565b60005b8261ffff168161ffff1610156104e25787878261ffff16818110610792576107926115db565b90506020020160208101906107a79190611258565b6001600160a01b03166108fc87878461ffff168181106107c9576107c96115db565b905060200201359081150290604051600060405180830381858888f193505050501580156107fb573d6000803e3d6000fd5b50610805816115f1565b905061076c565b6000306001600160a01b037f000000000000000000000000000000000000000000000000000000000000000016146108ac5760405162461bcd60e51b815260206004820152603860248201527f555550535570677261646561626c653a206d757374206e6f742062652063616c60448201527f6c6564207468726f7567682064656c656761746563616c6c000000000000000060648201526084016105cf565b506000805160206117e283398151915290565b6000838261ffff808316908216146108e95760405162461bcd60e51b81526004016105cf906116b8565b60005b8261ffff168161ffff1610156109e057886001600160a01b03166323b872dd338a8a8561ffff16818110610922576109226115db565b90506020020160208101906109379190611258565b89898661ffff1681811061094d5761094d6115db565b6040516001600160e01b031960e088901b1681526001600160a01b039586166004820152949093166024850152506020909102013560448201526064016020604051808303816000875af11580156109a9573d6000803e3d6000fd5b505050506040513d601f19601f820116820180604052508101906109cd91906115b9565b50806109d8816115f1565b9150506108ec565b50600198975050505050505050565b6109f7610d5e565b610a016000610f37565b565b600054610100900460ff1615808015610a235750600054600160ff909116105b80610a3d5750303b158015610a3d575060005460ff166001145b610aa05760405162461bcd60e51b815260206004820152602e60248201527f496e697469616c697a61626c653a20636f6e747261637420697320616c72656160448201526d191e481a5b9a5d1a585b1a5e995960921b60648201526084016105cf565b6000805460ff191660011790558015610ac3576000805461ff0019166101001790555b610acb610f89565b610ad3610fb8565b801561066c576000805461ff0019169055604051600181527f7f26b83ff96e1f2b6a682f133852f6798a09c465da95921460cefb38474024989060200160405180910390a150565b60008181610b2d3461ffff8416610db8565b905060005b8261ffff168161ffff161015610bb65785858261ffff16818110610b5857610b586115db565b9050602002016020810190610b6d9190611258565b6001600160a01b03166108fc839081150290604051600060405180830381858888f19350505050158015610ba5573d6000803e3d6000fd5b50610baf816115f1565b9050610b32565b50600195945050505050565b600082815b8161ffff168161ffff161015610c9d57866001600160a01b03166323b872dd3388888561ffff16818110610bfd57610bfd6115db565b9050602002016020810190610c129190611258565b6040516001600160e01b031960e085901b1681526001600160a01b03928316600482015291166024820152604481018790526064016020604051808303816000875af1158015610c66573d6000803e3d6000fd5b505050506040513d601f19601f82011682018060405250810190610c8a91906115b9565b5080610c95816115f1565b915050610bc7565b5060019695505050505050565b610cb2610d5e565b6001600160a01b038116610d175760405162461bcd60e51b815260206004820152602660248201527f4f776e61626c653a206e6577206f776e657220697320746865207a65726f206160448201526564647265737360d01b60648201526084016105cf565b61066c81610f37565b610d28610d5e565b6040516001600160a01b0383169082156108fc029083906000818181858888f193505050501580156103f2573d6000803e3d6000fd5b6033546001600160a01b03163314610a015760405162461bcd60e51b815260206004820181905260248201527f4f776e61626c653a2063616c6c6572206973206e6f7420746865206f776e657260448201526064016105cf565b600061058082846116f9565b61066c610d5e565b7f4910fdfa16fed3260ed0e7147f7cc6da11a60208b5b9406d12a635614ffd91435460ff1615610dff576103f283610fdf565b826001600160a01b03166352d1902d6040518163ffffffff1660e01b8152600401602060405180830381865afa925050508015610e59575060408051601f3d908101601f19168201909252610e56918101906115a0565b60015b610ebc5760405162461bcd60e51b815260206004820152602e60248201527f45524331393637557067726164653a206e657720696d706c656d656e7461746960448201526d6f6e206973206e6f74205555505360901b60648201526084016105cf565b6000805160206117e28339815191528114610f2b5760405162461bcd60e51b815260206004820152602960248201527f45524331393637557067726164653a20756e737570706f727465642070726f786044820152681a58589b195555525160ba1b60648201526084016105cf565b506103f283838361107b565b603380546001600160a01b038381166001600160a01b0319831681179093556040519116919082907f8be0079c531659141344cd1fd0a4f28419497f9722a3daafe3b4186f6b6457e090600090a35050565b600054610100900460ff16610fb05760405162461bcd60e51b81526004016105cf9061171b565b610a016110a6565b600054610100900460ff16610a015760405162461bcd60e51b81526004016105cf9061171b565b6001600160a01b0381163b61104c5760405162461bcd60e51b815260206004820152602d60248201527f455243313936373a206e657720696d706c656d656e746174696f6e206973206e60448201526c1bdd08184818dbdb9d1c9858dd609a1b60648201526084016105cf565b6000805160206117e283398151915280546001600160a01b0319166001600160a01b0392909216919091179055565b611084836110d6565b6000825111806110915750805b156103f2576110a08383611116565b50505050565b600054610100900460ff166110cd5760405162461bcd60e51b81526004016105cf9061171b565b610a0133610f37565b6110df81610fdf565b6040516001600160a01b038216907fbc7cd75a20ee27fd9adebab32041f755214dbc6bffa90cc0225b39da2e5c2d3b90600090a250565b60606001600160a01b0383163b61117e5760405162461bcd60e51b815260206004820152602660248201527f416464726573733a2064656c65676174652063616c6c20746f206e6f6e2d636f6044820152651b9d1c9858dd60d21b60648201526084016105cf565b600080846001600160a01b0316846040516111999190611792565b600060405180830381855af49150503d80600081146111d4576040519150601f19603f3d011682016040523d82523d6000602084013e6111d9565b606091505b509150915061120182826040518060600160405280602781526020016118026027913961120a565b95945050505050565b60608315611219575081610580565b8251156112295782518084602001fd5b8160405162461bcd60e51b81526004016105cf91906117ae565b6001600160a01b038116811461066c57600080fd5b60006020828403121561126a57600080fd5b813561058081611243565b6000806040838503121561128857600080fd5b823561129381611243565b946020939093013593505050565b60008083601f8401126112b357600080fd5b50813567ffffffffffffffff8111156112cb57600080fd5b6020830191508360208260051b85010111156112e657600080fd5b9250929050565b6000806000806060858703121561130357600080fd5b843561130e81611243565b9350602085013567ffffffffffffffff81111561132a57600080fd5b611336878288016112a1565b9598909750949560400135949350505050565b60008060006040848603121561135e57600080fd5b833567ffffffffffffffff81111561137557600080fd5b611381868287016112a1565b909790965060209590950135949350505050565b634e487b7160e01b600052604160045260246000fd5b600080604083850312156113be57600080fd5b82356113c981611243565b9150602083013567ffffffffffffffff808211156113e657600080fd5b818501915085601f8301126113fa57600080fd5b81358181111561140c5761140c611395565b604051601f8201601f19908116603f0116810190838211818310171561143457611434611395565b8160405282815288602084870101111561144d57600080fd5b8260208601602083013760006020848301015280955050505050509250929050565b6000806000806040858703121561148557600080fd5b843567ffffffffffffffff8082111561149d57600080fd5b6114a9888389016112a1565b909650945060208701359150808211156114c257600080fd5b506114cf878288016112a1565b95989497509550505050565b6000806000806000606086880312156114f357600080fd5b85356114fe81611243565b9450602086013567ffffffffffffffff8082111561151b57600080fd5b61152789838a016112a1565b9096509450604088013591508082111561154057600080fd5b5061154d888289016112a1565b969995985093965092949392505050565b6000806020838503121561157157600080fd5b823567ffffffffffffffff81111561158857600080fd5b611594858286016112a1565b90969095509350505050565b6000602082840312156115b257600080fd5b5051919050565b6000602082840312156115cb57600080fd5b8151801515811461058057600080fd5b634e487b7160e01b600052603260045260246000fd5b600061ffff80831681810361161657634e487b7160e01b600052601160045260246000fd5b6001019392505050565b6020808252602c908201527f46756e6374696f6e206d7573742062652063616c6c6564207468726f7567682060408201526b19195b1959d85d1958d85b1b60a21b606082015260800190565b6020808252602c908201527f46756e6374696f6e206d7573742062652063616c6c6564207468726f7567682060408201526b6163746976652070726f787960a01b606082015260800190565b60208082526021908201527f4164647265737320262056616c7565204c656e677468206d69736d61746368656040820152601960fa1b606082015260800190565b60008261171657634e487b7160e01b600052601260045260246000fd5b500490565b6020808252602b908201527f496e697469616c697a61626c653a20636f6e7472616374206973206e6f74206960408201526a6e697469616c697a696e6760a81b606082015260800190565b60005b83811015611781578181015183820152602001611769565b838111156110a05750506000910152565b600082516117a4818460208701611766565b9190910192915050565b60208152600082518060208401526117cd816040850160208701611766565b601f01601f1916919091016040019291505056fe360894a13ba1a3210667c828492db98dca3e2076cc3735a920a3ca505d382bbc416464726573733a206c6f772d6c6576656c2064656c65676174652063616c6c206661696c6564a264697066735822122030e3ede1c55b70dcfd8401ecee5642f893145bed189006df7b7a2edf5db4f59c64736f6c634300080f0033",
  "linkReferences": {},
  "deployedLinkReferences": {}
}