{
  "_format": "hh-sol-artifact-1",
  "contractName": "MultiSender",
  "sourceName": "contracts/MultiSender.sol",
  "abi": [
    {
      "anonymous": false,
      "inputs": [
        {
          "indexed": true,
          "internalType": "address",
          "name": "previousOwner",
          "type": "address"
        },
        {
          "indexed": true,
          "internalType": "address",
          "name": "newOwner",
          "type": "address"
        }
      ],
      "name": "OwnershipTransferred",
      "type": "event"
    },
    {
      "inputs": [],
      "name": "BNBBalance",
      "outputs": [
        {
          "internalType": "uint256",
          "name": "balance",
          "type": "uint256"
        }
      ],
      "stateMutability": "view",
      "type": "function"
    },
    {
      "inputs": [
        {
          "internalType": "address payable[]",
          "name": "_address",
          "type": "address[]"
        },
        {
          "internalType": "uint256",
          "name": "_value",
          "type": "uint256"
        }
      ],
      "name": "SendBNBEquallyByValue",
      "outputs": [
        {
          "internalType": "bool",
          "name": "",
          "type": "bool"
        }
      ],
      "stateMutability": "payable",
      "type": "function"
    },
    {
      "inputs": [
        {
          "internalType": "address",
          "name": "_tokenAddress",
          "type": "address"
        },
        {
          "internalType": "address[]",
          "name": "_address",
          "type": "address[]"
        },
        {
          "internalType": "uint256",
          "name": "_value",
          "type": "uint256"
        }
      ],
      "name": "SendTokensEquallyByValue",
      "outputs": [
        {
          "internalType": "bool",
          "name": "",
          "type": "bool"
        }
      ],
      "stateMutability": "nonpayable",
      "type": "function"
    },
    {
      "inputs": [
        {
          "internalType": "address",
          "name": "_tokenAddress",
          "type": "address"
        }
      ],
      "name": "TokensBalance",
      "outputs": [
        {
          "internalType": "uint256",
          "name": "balance",
          "type": "uint256"
        }
      ],
      "stateMutability": "view",
      "type": "function"
    },
    {
      "inputs": [],
      "name": "owner",
      "outputs": [
        {
          "internalType": "address",
          "name": "",
          "type": "address"
        }
      ],
      "stateMutability": "view",
      "type": "function"
    },
    {
      "inputs": [],
      "name": "renounceOwnership",
      "outputs": [],
      "stateMutability": "nonpayable",
      "type": "function"
    },
    {
      "inputs": [
        {
          "internalType": "address",
          "name": "newOwner",
          "type": "address"
        }
      ],
      "name": "transferOwnership",
      "outputs": [],
      "stateMutability": "nonpayable",
      "type": "function"
    },
    {
      "inputs": [
        {
          "internalType": "address",
          "name": "_address",
          "type": "address"
        },
        {
          "internalType": "uint256",
          "name": "_value",
          "type": "uint256"
        }
      ],
      "name": "withdraw",
      "outputs": [],
      "stateMutability": "nonpayable",
      "type": "function"
    },
    {
      "inputs": [
        {
          "internalType": "address",
          "name": "_tokenAddress",
          "type": "address"
        },
        {
          "internalType": "uint256",
          "name": "_value",
          "type": "uint256"
        }
      ],
      "name": "withdrawTokens",
      "outputs": [],
      "stateMutability": "nonpayable",
      "type": "function"
    },
    {
      "stateMutability": "payable",
      "type": "receive"
    }
  ],
  "bytecode": "0x608060405234801561001057600080fd5b5061001a3361001f565b61006f565b600080546001600160a01b038381166001600160a01b0319831681178455604051919092169283917f8be0079c531659141344cd1fd0a4f28419497f9722a3daafe3b4186f6b6457e09190a35050565b61080d8061007e6000396000f3fe6080604052600436106100895760003560e01c806376e2b7ab1161005957806376e2b7ab146101225780638da5cb5b14610135578063a63a85141461015d578063f2fde38b1461017d578063f3fef3a31461019d57600080fd5b8062036b2f1461009557806306b091f9146100c857806326014eb9146100ea578063715018a61461010d57600080fd5b3661009057005b600080fd5b3480156100a157600080fd5b506100b56100b03660046105ec565b6101bd565b6040519081526020015b60405180910390f35b3480156100d457600080fd5b506100e86100e3366004610610565b61022e565b005b6100fd6100f8366004610688565b6102bc565b60405190151581526020016100bf565b34801561011957600080fd5b506100e8610379565b34801561012e57600080fd5b50476100b5565b34801561014157600080fd5b506000546040516001600160a01b0390911681526020016100bf565b34801561016957600080fd5b506100fd6101783660046106d4565b61038d565b34801561018957600080fd5b506100e86101983660046105ec565b610471565b3480156101a957600080fd5b506100e86101b8366004610610565b6104ef565b6040516370a0823160e01b81523060048201526000906001600160a01b038316906370a0823190602401602060405180830381865afa158015610204573d6000803e3d6000fd5b505050506040513d601f19601f820116820180604052508101906102289190610730565b50919050565b61023661052d565b6001600160a01b03821663a9059cbb336040516001600160e01b031960e084901b1681526001600160a01b039091166004820152602481018490526044016020604051808303816000875af1158015610293573d6000803e3d6000fd5b505050506040513d601f19601f820116820180604052508101906102b79190610749565b505050565b60006102c661052d565b8260006102d761ffff831685610781565b90508034146102e557600080fd5b60005b8261ffff168161ffff16101561036c5786868261ffff1681811061030e5761030e6107a0565b905060200201602081019061032391906105ec565b6001600160a01b03166108fc869081150290604051600060405180830381858888f1935050505015801561035b573d6000803e3d6000fd5b50610365816107b6565b90506102e8565b5060019695505050505050565b61038161052d565b61038b6000610587565b565b600061039761052d565b8260005b8161ffff168161ffff16101561036c57866001600160a01b03166323b872dd3388888561ffff168181106103d1576103d16107a0565b90506020020160208101906103e691906105ec565b6040516001600160e01b031960e085901b1681526001600160a01b03928316600482015291166024820152604481018790526064016020604051808303816000875af115801561043a573d6000803e3d6000fd5b505050506040513d601f19601f8201168201806040525081019061045e9190610749565b5080610469816107b6565b91505061039b565b61047961052d565b6001600160a01b0381166104e35760405162461bcd60e51b815260206004820152602660248201527f4f776e61626c653a206e6577206f776e657220697320746865207a65726f206160448201526564647265737360d01b60648201526084015b60405180910390fd5b6104ec81610587565b50565b6104f761052d565b6040516001600160a01b0383169082156108fc029083906000818181858888f193505050501580156102b7573d6000803e3d6000fd5b6000546001600160a01b0316331461038b5760405162461bcd60e51b815260206004820181905260248201527f4f776e61626c653a2063616c6c6572206973206e6f7420746865206f776e657260448201526064016104da565b600080546001600160a01b038381166001600160a01b0319831681178455604051919092169283917f8be0079c531659141344cd1fd0a4f28419497f9722a3daafe3b4186f6b6457e09190a35050565b6001600160a01b03811681146104ec57600080fd5b6000602082840312156105fe57600080fd5b8135610609816105d7565b9392505050565b6000806040838503121561062357600080fd5b823561062e816105d7565b946020939093013593505050565b60008083601f84011261064e57600080fd5b50813567ffffffffffffffff81111561066657600080fd5b6020830191508360208260051b850101111561068157600080fd5b9250929050565b60008060006040848603121561069d57600080fd5b833567ffffffffffffffff8111156106b457600080fd5b6106c08682870161063c565b909790965060209590950135949350505050565b600080600080606085870312156106ea57600080fd5b84356106f5816105d7565b9350602085013567ffffffffffffffff81111561071157600080fd5b61071d8782880161063c565b9598909750949560400135949350505050565b60006020828403121561074257600080fd5b5051919050565b60006020828403121561075b57600080fd5b8151801515811461060957600080fd5b634e487b7160e01b600052601160045260246000fd5b600081600019048311821515161561079b5761079b61076b565b500290565b634e487b7160e01b600052603260045260246000fd5b600061ffff8083168181036107cd576107cd61076b565b600101939250505056fea264697066735822122032437a96c48edf7e39c291bf77d555266f914cff9c68fe56e1cb0339d26a5b1764736f6c634300080f0033",
  "linkReferences": {},
  "deployedLinkReferences": {}
}